{
  "contractName": "BloodHub",
  "abi": [
    {
      "anonymous": false,
      "inputs": [
        {
          "indexed": true,
          "internalType": "uint256",
          "name": "appointmentID",
          "type": "uint256"
        }
      ],
      "name": "AppointmentAttended",
      "type": "event"
    },
    {
      "anonymous": false,
      "inputs": [
        {
          "indexed": true,
          "internalType": "uint256",
          "name": "appointmentID",
          "type": "uint256"
        },
        {
          "indexed": true,
          "internalType": "uint256",
          "name": "campaignID",
          "type": "uint256"
        },
        {
          "indexed": true,
          "internalType": "address",
          "name": "donor",
          "type": "address"
        },
        {
          "indexed": false,
          "internalType": "uint256",
          "name": "slotID",
          "type": "uint256"
        }
      ],
      "name": "AppointmentCreated",
      "type": "event"
    },
    {
      "anonymous": false,
      "inputs": [
        {
          "indexed": true,
          "internalType": "address",
          "name": "admin",
          "type": "address"
        },
        {
          "indexed": true,
          "internalType": "uint256",
          "name": "campaignID",
          "type": "uint256"
        }
      ],
      "name": "CampaignApproved",
      "type": "event"
    },
    {
      "anonymous": false,
      "inputs": [
        {
          "indexed": true,
          "internalType": "address",
          "name": "organization",
          "type": "address"
        },
        {
          "indexed": true,
          "internalType": "uint256",
          "name": "campaignID",
          "type": "uint256"
        }
      ],
      "name": "CampaignCreated",
      "type": "event"
    },
    {
      "anonymous": false,
      "inputs": [
        {
          "indexed": true,
          "internalType": "address",
          "name": "organization",
          "type": "address"
        },
        {
          "indexed": true,
          "internalType": "uint256",
          "name": "campaignID",
          "type": "uint256"
        }
      ],
      "name": "CampaignDeleted",
      "type": "event"
    },
    {
      "anonymous": false,
      "inputs": [
        {
          "indexed": true,
          "internalType": "uint256",
          "name": "campaignID",
          "type": "uint256"
        },
        {
          "indexed": false,
          "internalType": "uint256",
          "name": "slotID",
          "type": "uint256"
        },
        {
          "indexed": false,
          "internalType": "bytes32",
          "name": "slotData",
          "type": "bytes32"
        }
      ],
      "name": "SlotCreated",
      "type": "event"
    },
    {
      "anonymous": false,
      "inputs": [
        {
          "indexed": true,
          "internalType": "uint256",
          "name": "campaignID",
          "type": "uint256"
        }
      ],
      "name": "SlotsDeleted",
      "type": "event"
    },
    {
      "anonymous": false,
      "inputs": [
        {
          "indexed": true,
          "internalType": "address",
          "name": "user",
          "type": "address"
        },
        {
          "indexed": true,
          "internalType": "enum BloodHub.UserRole",
          "name": "newRole",
          "type": "uint8"
        }
      ],
      "name": "UserRoleChanged",
      "type": "event"
    },
    {
      "inputs": [
        {
          "internalType": "uint256",
          "name": "",
          "type": "uint256"
        }
      ],
      "name": "appointmentIDs",
      "outputs": [
        {
          "internalType": "uint256",
          "name": "",
          "type": "uint256"
        }
      ],
      "stateMutability": "view",
      "type": "function",
      "constant": true
    },
    {
      "inputs": [
        {
          "internalType": "uint256",
          "name": "",
          "type": "uint256"
        }
      ],
      "name": "appointments",
      "outputs": [
        {
          "internalType": "uint256",
          "name": "appointmentID",
          "type": "uint256"
        },
        {
          "internalType": "uint256",
          "name": "campaignID",
          "type": "uint256"
        },
        {
          "internalType": "uint256",
          "name": "slotID",
          "type": "uint256"
        },
        {
          "internalType": "address",
          "name": "donor",
          "type": "address"
        },
        {
          "internalType": "bool",
          "name": "attended",
          "type": "bool"
        }
      ],
      "stateMutability": "view",
      "type": "function",
      "constant": true
    },
    {
      "inputs": [
        {
          "internalType": "uint256",
          "name": "",
          "type": "uint256"
        }
      ],
      "name": "bloodStocks",
      "outputs": [
        {
          "internalType": "uint256",
          "name": "stockID",
          "type": "uint256"
        },
        {
          "internalType": "uint256",
          "name": "ownerID",
          "type": "uint256"
        },
        {
          "internalType": "bytes32",
          "name": "bloodGroup",
          "type": "bytes32"
        },
        {
          "internalType": "uint256",
          "name": "units",
          "type": "uint256"
        }
      ],
      "stateMutability": "view",
      "type": "function",
      "constant": true
    },
    {
      "inputs": [
        {
          "internalType": "uint256",
          "name": "",
          "type": "uint256"
        },
        {
          "internalType": "uint256",
          "name": "",
          "type": "uint256"
        }
      ],
      "name": "bloodStocksByOwner",
      "outputs": [
        {
          "internalType": "uint256",
          "name": "stockID",
          "type": "uint256"
        },
        {
          "internalType": "uint256",
          "name": "ownerID",
          "type": "uint256"
        },
        {
          "internalType": "bytes32",
          "name": "bloodGroup",
          "type": "bytes32"
        },
        {
          "internalType": "uint256",
          "name": "units",
          "type": "uint256"
        }
      ],
      "stateMutability": "view",
      "type": "function",
      "constant": true
    },
    {
      "inputs": [
        {
          "internalType": "uint256",
          "name": "",
          "type": "uint256"
        }
      ],
      "name": "campaignIDs",
      "outputs": [
        {
          "internalType": "uint256",
          "name": "",
          "type": "uint256"
        }
      ],
      "stateMutability": "view",
      "type": "function",
      "constant": true
    },
    {
      "inputs": [
        {
          "internalType": "uint256",
          "name": "",
          "type": "uint256"
        },
        {
          "internalType": "uint256",
          "name": "",
          "type": "uint256"
        }
      ],
      "name": "campaignSlotsMap",
      "outputs": [
        {
          "internalType": "uint256",
          "name": "slotID",
          "type": "uint256"
        },
        {
          "internalType": "uint256",
          "name": "campaignID",
          "type": "uint256"
        },
        {
          "internalType": "bytes32",
          "name": "slotData",
          "type": "bytes32"
        }
      ],
      "stateMutability": "view",
      "type": "function",
      "constant": true
    },
    {
      "inputs": [
        {
          "internalType": "uint256",
          "name": "",
          "type": "uint256"
        }
      ],
      "name": "campaigns",
      "outputs": [
        {
          "internalType": "address",
          "name": "organization",
          "type": "address"
        },
        {
          "internalType": "uint256",
          "name": "campaignID",
          "type": "uint256"
        },
        {
          "internalType": "bytes32",
          "name": "location",
          "type": "bytes32"
        },
        {
          "internalType": "bytes32",
          "name": "date",
          "type": "bytes32"
        },
        {
          "internalType": "bytes32",
          "name": "startTime",
          "type": "bytes32"
        },
        {
          "internalType": "bytes32",
          "name": "endTime",
          "type": "bytes32"
        },
        {
          "internalType": "uint256",
          "name": "organizationID",
          "type": "uint256"
        },
        {
          "internalType": "bool",
          "name": "approved",
          "type": "bool"
        }
      ],
      "stateMutability": "view",
      "type": "function",
      "constant": true
    },
    {
      "inputs": [],
      "name": "nextRequestID",
      "outputs": [
        {
          "internalType": "uint256",
          "name": "",
          "type": "uint256"
        }
      ],
      "stateMutability": "view",
      "type": "function",
      "constant": true
    },
    {
      "inputs": [
        {
          "internalType": "address",
          "name": "",
          "type": "address"
        },
        {
          "internalType": "uint256",
          "name": "",
          "type": "uint256"
        }
      ],
      "name": "organizationCampaigns",
      "outputs": [
        {
          "internalType": "uint256",
          "name": "",
          "type": "uint256"
        }
      ],
      "stateMutability": "view",
      "type": "function",
      "constant": true
    },
    {
      "inputs": [
        {
          "internalType": "uint256",
          "name": "",
          "type": "uint256"
        }
      ],
      "name": "transferKeyList",
      "outputs": [
        {
          "internalType": "uint256",
          "name": "",
          "type": "uint256"
        }
      ],
      "stateMutability": "view",
      "type": "function",
      "constant": true
    },
    {
      "inputs": [
        {
          "internalType": "uint256",
          "name": "",
          "type": "uint256"
        }
      ],
      "name": "transferKeys",
      "outputs": [
        {
          "internalType": "bool",
          "name": "",
          "type": "bool"
        }
      ],
      "stateMutability": "view",
      "type": "function",
      "constant": true
    },
    {
      "inputs": [
        {
          "internalType": "uint256",
          "name": "",
          "type": "uint256"
        }
      ],
      "name": "transferRequestKeyList",
      "outputs": [
        {
          "internalType": "uint256",
          "name": "",
          "type": "uint256"
        }
      ],
      "stateMutability": "view",
      "type": "function",
      "constant": true
    },
    {
      "inputs": [
        {
          "internalType": "uint256",
          "name": "",
          "type": "uint256"
        }
      ],
      "name": "transferRequestKeys",
      "outputs": [
        {
          "internalType": "bool",
          "name": "",
          "type": "bool"
        }
      ],
      "stateMutability": "view",
      "type": "function",
      "constant": true
    },
    {
      "inputs": [
        {
          "internalType": "uint256",
          "name": "",
          "type": "uint256"
        }
      ],
      "name": "transferRequestsByHospital",
      "outputs": [
        {
          "internalType": "uint256",
          "name": "requestID",
          "type": "uint256"
        },
        {
          "internalType": "uint256",
          "name": "hospitalID",
          "type": "uint256"
        },
        {
          "internalType": "bytes32",
          "name": "bloodGroup",
          "type": "bytes32"
        },
        {
          "internalType": "uint256",
          "name": "units",
          "type": "uint256"
        }
      ],
      "stateMutability": "view",
      "type": "function",
      "constant": true
    },
    {
      "inputs": [
        {
          "internalType": "uint256",
          "name": "",
          "type": "uint256"
        }
      ],
      "name": "transfersByAdminOrg",
      "outputs": [
        {
          "internalType": "uint256",
          "name": "transferID",
          "type": "uint256"
        },
        {
          "internalType": "uint256",
          "name": "receiverID",
          "type": "uint256"
        },
        {
          "internalType": "uint256",
          "name": "senderID",
          "type": "uint256"
        },
        {
          "internalType": "bytes32",
          "name": "bloodGroup",
          "type": "bytes32"
        },
        {
          "internalType": "uint256",
          "name": "units",
          "type": "uint256"
        }
      ],
      "stateMutability": "view",
      "type": "function",
      "constant": true
    },
    {
      "inputs": [
        {
          "internalType": "address",
          "name": "",
          "type": "address"
        }
      ],
      "name": "userRoles",
      "outputs": [
        {
          "internalType": "enum BloodHub.UserRole",
          "name": "",
          "type": "uint8"
        }
      ],
      "stateMutability": "view",
      "type": "function",
      "constant": true
    },
    {
      "inputs": [
        {
          "internalType": "uint256",
          "name": "organizationID",
          "type": "uint256"
        },
        {
          "internalType": "uint256",
          "name": "campaignID",
          "type": "uint256"
        },
        {
          "internalType": "bytes32",
          "name": "location",
          "type": "bytes32"
        },
        {
          "internalType": "bytes32",
          "name": "date",
          "type": "bytes32"
        },
        {
          "internalType": "bytes32",
          "name": "startTime",
          "type": "bytes32"
        },
        {
          "internalType": "bytes32",
          "name": "endTime",
          "type": "bytes32"
        }
      ],
      "name": "createCampaign",
      "outputs": [],
      "stateMutability": "nonpayable",
      "type": "function"
    },
    {
      "inputs": [
        {
          "internalType": "uint256",
          "name": "campaignID",
          "type": "uint256"
        }
      ],
      "name": "approveCampaign",
      "outputs": [],
      "stateMutability": "nonpayable",
      "type": "function"
    },
    {
      "inputs": [],
      "name": "getAllCampaignsForAnyone",
      "outputs": [
        {
          "internalType": "uint256[]",
          "name": "_campaignIDs",
          "type": "uint256[]"
        },
        {
          "internalType": "address[]",
          "name": "organizations",
          "type": "address[]"
        },
        {
          "internalType": "uint256[]",
          "name": "organizationIDs",
          "type": "uint256[]"
        },
        {
          "internalType": "bytes32[]",
          "name": "locations",
          "type": "bytes32[]"
        },
        {
          "internalType": "bytes32[]",
          "name": "dates",
          "type": "bytes32[]"
        },
        {
          "internalType": "bytes32[]",
          "name": "startTimes",
          "type": "bytes32[]"
        },
        {
          "internalType": "bytes32[]",
          "name": "endTimes",
          "type": "bytes32[]"
        },
        {
          "internalType": "bool[]",
          "name": "approvedStatus",
          "type": "bool[]"
        }
      ],
      "stateMutability": "view",
      "type": "function",
      "constant": true
    },
    {
      "inputs": [
        {
          "internalType": "uint256",
          "name": "campaignID",
          "type": "uint256"
        }
      ],
      "name": "deleteCampaign",
      "outputs": [],
      "stateMutability": "nonpayable",
      "type": "function"
    },
    {
      "inputs": [
        {
          "internalType": "uint256",
          "name": "appointmentID",
          "type": "uint256"
        },
        {
          "internalType": "uint256",
          "name": "campaignID",
          "type": "uint256"
        },
        {
          "internalType": "uint256",
          "name": "slotID",
          "type": "uint256"
        }
      ],
      "name": "createAppointment",
      "outputs": [],
      "stateMutability": "nonpayable",
      "type": "function"
    },
    {
      "inputs": [
        {
          "internalType": "uint256",
          "name": "campaignID",
          "type": "uint256"
        }
      ],
      "name": "getAllAppointmentsForCampaign",
      "outputs": [
        {
          "internalType": "uint256[]",
          "name": "_campaignIDs",
          "type": "uint256[]"
        },
        {
          "internalType": "uint256[]",
          "name": "_appointmentIDs",
          "type": "uint256[]"
        },
        {
          "internalType": "address[]",
          "name": "donors",
          "type": "address[]"
        },
        {
          "internalType": "uint256[]",
          "name": "slotIDs",
          "type": "uint256[]"
        },
        {
          "internalType": "bool[]",
          "name": "attendedStatus",
          "type": "bool[]"
        }
      ],
      "stateMutability": "view",
      "type": "function",
      "constant": true
    },
    {
      "inputs": [
        {
          "internalType": "uint256",
          "name": "appointmentID",
          "type": "uint256"
        }
      ],
      "name": "deleteAppointment",
      "outputs": [],
      "stateMutability": "nonpayable",
      "type": "function"
    },
    {
      "inputs": [
        {
          "internalType": "uint256",
          "name": "appointmentID",
          "type": "uint256"
        }
      ],
      "name": "markAppointmentAttended",
      "outputs": [],
      "stateMutability": "nonpayable",
      "type": "function"
    },
    {
      "inputs": [
        {
          "internalType": "address",
          "name": "user",
          "type": "address"
        },
        {
          "internalType": "enum BloodHub.UserRole",
          "name": "newRole",
          "type": "uint8"
        }
      ],
      "name": "setUserRole",
      "outputs": [],
      "stateMutability": "nonpayable",
      "type": "function"
    },
    {
      "inputs": [
        {
          "internalType": "uint256",
          "name": "_stockID",
          "type": "uint256"
        },
        {
          "internalType": "uint256",
          "name": "_ownerID",
          "type": "uint256"
        },
        {
          "internalType": "bytes32",
          "name": "_bloodGroup",
          "type": "bytes32"
        },
        {
          "internalType": "uint256",
          "name": "_units",
          "type": "uint256"
        }
      ],
      "name": "addBloodStock",
      "outputs": [],
      "stateMutability": "nonpayable",
      "type": "function"
    },
    {
      "inputs": [
        {
          "internalType": "uint256",
          "name": "_requestID",
          "type": "uint256"
        },
        {
          "internalType": "uint256",
          "name": "_hospitalID",
          "type": "uint256"
        },
        {
          "internalType": "bytes32",
          "name": "_bloodGroup",
          "type": "bytes32"
        },
        {
          "internalType": "uint256",
          "name": "_units",
          "type": "uint256"
        }
      ],
      "name": "makeTransferRequestByHospital",
      "outputs": [],
      "stateMutability": "nonpayable",
      "type": "function"
    },
    {
      "inputs": [
        {
          "internalType": "uint256",
          "name": "_transferID",
          "type": "uint256"
        },
        {
          "internalType": "uint256",
          "name": "_receiverID",
          "type": "uint256"
        },
        {
          "internalType": "uint256",
          "name": "_senderID",
          "type": "uint256"
        },
        {
          "internalType": "bytes32",
          "name": "_bloodGroup",
          "type": "bytes32"
        },
        {
          "internalType": "uint256",
          "name": "_units",
          "type": "uint256"
        }
      ],
      "name": "executeBloodTransferByAdminOrg",
      "outputs": [],
      "stateMutability": "nonpayable",
      "type": "function"
    },
    {
      "inputs": [
        {
          "internalType": "uint256",
          "name": "_ownerID",
          "type": "uint256"
        }
      ],
      "name": "getBloodStocksByOwner",
      "outputs": [
        {
          "internalType": "uint256[]",
          "name": "",
          "type": "uint256[]"
        },
        {
          "internalType": "uint256[]",
          "name": "",
          "type": "uint256[]"
        },
        {
          "internalType": "bytes32[]",
          "name": "",
          "type": "bytes32[]"
        },
        {
          "internalType": "uint256[]",
          "name": "",
          "type": "uint256[]"
        }
      ],
      "stateMutability": "view",
      "type": "function",
      "constant": true
    },
    {
      "inputs": [],
      "name": "getAllTransferRequestsByHospital",
      "outputs": [
        {
          "internalType": "uint256[]",
          "name": "",
          "type": "uint256[]"
        },
        {
          "internalType": "uint256[]",
          "name": "",
          "type": "uint256[]"
        },
        {
          "internalType": "bytes32[]",
          "name": "",
          "type": "bytes32[]"
        },
        {
          "internalType": "uint256[]",
          "name": "",
          "type": "uint256[]"
        }
      ],
      "stateMutability": "view",
      "type": "function",
      "constant": true
    },
    {
      "inputs": [
        {
          "internalType": "uint256",
          "name": "_senderID",
          "type": "uint256"
        }
      ],
      "name": "getTransfersBySender",
      "outputs": [
        {
          "internalType": "uint256[]",
          "name": "",
          "type": "uint256[]"
        },
        {
          "internalType": "uint256[]",
          "name": "",
          "type": "uint256[]"
        },
        {
          "internalType": "uint256[]",
          "name": "",
          "type": "uint256[]"
        },
        {
          "internalType": "bytes32[]",
          "name": "",
          "type": "bytes32[]"
        },
        {
          "internalType": "uint256[]",
          "name": "",
          "type": "uint256[]"
        }
      ],
      "stateMutability": "view",
      "type": "function",
      "constant": true
    },
    {
      "inputs": [
        {
          "internalType": "uint256",
          "name": "_receiverID",
          "type": "uint256"
        }
      ],
      "name": "getTransfersByReceiver",
      "outputs": [
        {
          "internalType": "uint256[]",
          "name": "",
          "type": "uint256[]"
        },
        {
          "internalType": "uint256[]",
          "name": "",
          "type": "uint256[]"
        },
        {
          "internalType": "uint256[]",
          "name": "",
          "type": "uint256[]"
        },
        {
          "internalType": "bytes32[]",
          "name": "",
          "type": "bytes32[]"
        },
        {
          "internalType": "uint256[]",
          "name": "",
          "type": "uint256[]"
        }
      ],
      "stateMutability": "view",
      "type": "function",
      "constant": true
    },
    {
      "inputs": [
        {
          "internalType": "uint256",
          "name": "_campaignID",
          "type": "uint256"
        },
        {
          "internalType": "uint256",
          "name": "_slotID",
          "type": "uint256"
        },
        {
          "internalType": "bytes32",
          "name": "_slotData",
          "type": "bytes32"
        }
      ],
      "name": "createSlot",
      "outputs": [],
      "stateMutability": "nonpayable",
      "type": "function"
    },
    {
      "inputs": [
        {
          "internalType": "uint256",
          "name": "_campaignID",
          "type": "uint256"
        }
      ],
      "name": "getAllCampaignSlotsByCampaignID",
      "outputs": [
        {
          "internalType": "uint256[]",
          "name": "slotIDs",
          "type": "uint256[]"
        },
        {
          "internalType": "bytes32[]",
          "name": "slotDataArray",
          "type": "bytes32[]"
        }
      ],
      "stateMutability": "view",
      "type": "function",
      "constant": true
    },
    {
      "inputs": [
        {
          "internalType": "uint256",
          "name": "_campaignID",
          "type": "uint256"
        }
      ],
      "name": "deleteSlots",
      "outputs": [],
      "stateMutability": "nonpayable",
      "type": "function"
    }
  ],
  "bytecode": "0x608060405234801561001057600080fd5b5061563b80620000216000396000f3fe608060405234801561001057600080fd5b50600436106102115760003560e01c80635fe80ff511610125578063a963f7ad116100ad578063d799df8a1161007c578063d799df8a146106fc578063dd2bde5d14610718578063e156efb414610749578063e7dc2d3714610765578063ee4e1b531461079857610211565b8063a963f7ad14610645578063b150164114610677578063c1530fec1461069c578063c64791e7146106cc57610211565b80638aa72687116100f45780638aa72687146105795780638f6e8a24146105955780639e277006146105c55780639f3d93c0146105f95780639fd3c6f81461061557610211565b80635fe80ff5146104de578063723e6a5a146104fa57806374d5e1001461052d578063759701931461055d57610211565b806326ef75d9116101a857806343df3d651161017757806343df3d651461040e578063469318151461043e57806353a06b9c1461045a5780635b39d7011461047b5780635f57f4c6146104ae57610211565b806326ef75d91461035657806330086d71146103725780633d73f337146103a657806340a03bae146103da57610211565b8063141961bc116101e4578063141961bc146102a05780631b83dc74146102d75780632199a36b146102f357806325d27ebd1461032357610211565b806303a6961114610216578063100212ac1461023257806312b7d9601461024e57806312dc90131461026c575b600080fd5b610230600480360381019061022b9190614614565b6107b4565b005b61024c6004803603810190610247919061468c565b6109c0565b005b610256610cb3565b60405161026391906151c5565b60405180910390f35b6102866004803603810190610281919061468c565b610cb9565b604051610297959493929190615285565b60405180910390f35b6102ba60048036038101906102b5919061468c565b610d1c565b6040516102ce989796959493929190614db7565b60405180910390f35b6102f160048036038101906102ec919061482c565b610d91565b005b61030d6004803603810190610308919061468c565b611144565b60405161031a919061506f565b60405180910390f35b61033d6004803603810190610338919061468c565b611164565b60405161034d9493929190614f98565b60405180910390f35b610370600480360381019061036b91906147c9565b6115d8565b005b61038c6004803603810190610387919061468c565b61166b565b60405161039d959493929190614ff9565b60405180910390f35b6103c060048036038101906103bb919061468c565b611b3b565b6040516103d1959493929190614f22565b60405180910390f35b6103f460048036038101906103ef919061468c565b611fed565b6040516104059594939291906152d8565b60405180910390f35b6104286004803603810190610423919061468c565b612023565b604051610435919061506f565b60405180910390f35b6104586004803603810190610453919061468c565b612043565b005b6104626123ba565b6040516104729493929190614f98565b60405180910390f35b6104956004803603810190610490919061468c565b61277e565b6040516104a59493929190615240565b60405180910390f35b6104c860048036038101906104c3919061468c565b6127ae565b6040516104d591906151c5565b60405180910390f35b6104f860048036038101906104f39190614740565b6127d2565b005b610514600480360381019061050f919061468c565b612b00565b6040516105249493929190615240565b60405180910390f35b610547600480360381019061054291906145eb565b612b30565b604051610554919061508a565b60405180910390f35b6105776004803603810190610572919061468c565b612b50565b005b610593600480360381019061058e91906147c9565b6130c0565b005b6105af60048036038101906105aa919061468c565b61317a565b6040516105bc91906151c5565b60405180910390f35b6105df60048036038101906105da919061468c565b61319e565b6040516105f0959493929190614ff9565b60405180910390f35b610613600480360381019061060e91906146f1565b61366e565b005b61062f600480360381019061062a919061468c565b61372a565b60405161063c91906151c5565b60405180910390f35b61065f600480360381019061065a91906146b5565b61374e565b60405161066e93929190615209565b60405180910390f35b61067f613795565b604051610693989796959493929190614e35565b60405180910390f35b6106b660048036038101906106b19190614650565b613e70565b6040516106c391906151c5565b60405180910390f35b6106e660048036038101906106e1919061468c565b613ea1565b6040516106f391906151c5565b60405180910390f35b6107166004803603810190610711919061468c565b613ec5565b005b610732600480360381019061072d919061468c565b613fb4565b604051610740929190614eeb565b60405180910390f35b610763600480360381019061075e919061487b565b61421d565b005b61077f600480360381019061077a91906146b5565b6142e8565b60405161078f9493929190615240565b60405180910390f35b6107b260048036038101906107ad919061468c565b614335565b005b60008060038111156107ef577f4e487b7100000000000000000000000000000000000000000000000000000000600052602160045260246000fd5b6000803373ffffffffffffffffffffffffffffffffffffffff1673ffffffffffffffffffffffffffffffffffffffff16815260200190815260200160002060009054906101000a900460ff166003811115610873577f4e487b7100000000000000000000000000000000000000000000000000000000600052602160045260246000fd5b146108b3576040517f08c379a00000000000000000000000000000000000000000000000000000000081526004016108aa90615185565b60405180910390fd5b816000808573ffffffffffffffffffffffffffffffffffffffff1673ffffffffffffffffffffffffffffffffffffffff16815260200190815260200160002060006101000a81548160ff0219169083600381111561093a577f4e487b7100000000000000000000000000000000000000000000000000000000600052602160045260246000fd5b0217905550816003811115610978577f4e487b7100000000000000000000000000000000000000000000000000000000600052602160045260246000fd5b8373ffffffffffffffffffffffffffffffffffffffff167f8a01959290c56406db4906c89a865c688b0e16dea6022233eceab437856d479760405160405180910390a3505050565b60018060038111156109fb577f4e487b7100000000000000000000000000000000000000000000000000000000600052602160045260246000fd5b6000803373ffffffffffffffffffffffffffffffffffffffff1673ffffffffffffffffffffffffffffffffffffffff16815260200190815260200160002060009054906101000a900460ff166003811115610a7f577f4e487b7100000000000000000000000000000000000000000000000000000000600052602160045260246000fd5b14610abf576040517f08c379a0000000000000000000000000000000000000000000000000000000008152600401610ab690615185565b60405180910390fd5b6000600360008481526020019081526020016000209050600073ffffffffffffffffffffffffffffffffffffffff168160030160009054906101000a900473ffffffffffffffffffffffffffffffffffffffff1673ffffffffffffffffffffffffffffffffffffffff161415610b6a576040517f08c379a0000000000000000000000000000000000000000000000000000000008152600401610b61906151a5565b60405180910390fd5b3373ffffffffffffffffffffffffffffffffffffffff16600460008360010154815260200190815260200160002060000160009054906101000a900473ffffffffffffffffffffffffffffffffffffffff1673ffffffffffffffffffffffffffffffffffffffff1614610c12576040517f08c379a0000000000000000000000000000000000000000000000000000000008152600401610c0990615185565b60405180910390fd5b8060030160149054906101000a900460ff1615610c64576040517f08c379a0000000000000000000000000000000000000000000000000000000008152600401610c5b90615105565b60405180910390fd5b60018160030160146101000a81548160ff021916908315150217905550827fbd9e9a2c559afaafe58ac366e31d24ee10afb336571453db113bdc5e8bccda0560405160405180910390a2505050565b60075481565b60036020528060005260406000206000915090508060000154908060010154908060020154908060030160009054906101000a900473ffffffffffffffffffffffffffffffffffffffff16908060030160149054906101000a900460ff16905085565b60046020528060005260406000206000915090508060000160009054906101000a900473ffffffffffffffffffffffffffffffffffffffff16908060010154908060020154908060030154908060040154908060050154908060060154908060070160009054906101000a900460ff16905088565b6002806003811115610dcc577f4e487b7100000000000000000000000000000000000000000000000000000000600052602160045260246000fd5b6000803373ffffffffffffffffffffffffffffffffffffffff1673ffffffffffffffffffffffffffffffffffffffff16815260200190815260200160002060009054906101000a900460ff166003811115610e50577f4e487b7100000000000000000000000000000000000000000000000000000000600052602160045260246000fd5b14610e90576040517f08c379a0000000000000000000000000000000000000000000000000000000008152600401610e8790615185565b60405180910390fd5b600073ffffffffffffffffffffffffffffffffffffffff166003600086815260200190815260200160002060030160009054906101000a900473ffffffffffffffffffffffffffffffffffffffff1673ffffffffffffffffffffffffffffffffffffffff1614610f35576040517f08c379a0000000000000000000000000000000000000000000000000000000008152600401610f2c906150c5565b60405180910390fd5b6000600460008581526020019081526020016000209050600073ffffffffffffffffffffffffffffffffffffffff168160000160009054906101000a900473ffffffffffffffffffffffffffffffffffffffff1673ffffffffffffffffffffffffffffffffffffffff161415610fe0576040517f08c379a0000000000000000000000000000000000000000000000000000000008152600401610fd790615125565b60405180910390fd5b8060070160009054906101000a900460ff16611031576040517f08c379a0000000000000000000000000000000000000000000000000000000008152600401611028906150a5565b60405180910390fd5b6000600360008781526020019081526020016000209050858160000181905550848160010181905550838160020181905550338160030160006101000a81548173ffffffffffffffffffffffffffffffffffffffff021916908373ffffffffffffffffffffffffffffffffffffffff16021790555060008160030160146101000a81548160ff02191690831515021790555060028690806001815401808255809150506001900390600052602060002001600090919091909150553373ffffffffffffffffffffffffffffffffffffffff1685877ffc4f6658bcdff50e440cc0e8cf4b8374d60a09742511850a7e07f5458a779c938760405161113491906151c5565b60405180910390a4505050505050565b600e6020528060005260406000206000915054906101000a900460ff1681565b6060806060806000600b600087815260200190815260200160002090506000818054905067ffffffffffffffff8111156111c7577f4e487b7100000000000000000000000000000000000000000000000000000000600052604160045260246000fd5b6040519080825280602002602001820160405280156111f55781602001602082028036833780820191505090505b5090506000828054905067ffffffffffffffff81111561123e577f4e487b7100000000000000000000000000000000000000000000000000000000600052604160045260246000fd5b60405190808252806020026020018201604052801561126c5781602001602082028036833780820191505090505b5090506000838054905067ffffffffffffffff8111156112b5577f4e487b7100000000000000000000000000000000000000000000000000000000600052604160045260246000fd5b6040519080825280602002602001820160405280156112e35781602001602082028036833780820191505090505b5090506000848054905067ffffffffffffffff81111561132c577f4e487b7100000000000000000000000000000000000000000000000000000000600052604160045260246000fd5b60405190808252806020026020018201604052801561135a5781602001602082028036833780820191505090505b50905060005b85805490508110156115bf578581815481106113a5577f4e487b7100000000000000000000000000000000000000000000000000000000600052603260045260246000fd5b9060005260206000209060040201600001548582815181106113f0577f4e487b7100000000000000000000000000000000000000000000000000000000600052603260045260246000fd5b602002602001018181525050858181548110611435577f4e487b7100000000000000000000000000000000000000000000000000000000600052603260045260246000fd5b906000526020600020906004020160010154848281518110611480577f4e487b7100000000000000000000000000000000000000000000000000000000600052603260045260246000fd5b6020026020010181815250508581815481106114c5577f4e487b7100000000000000000000000000000000000000000000000000000000600052603260045260246000fd5b906000526020600020906004020160020154838281518110611510577f4e487b7100000000000000000000000000000000000000000000000000000000600052603260045260246000fd5b602002602001018181525050858181548110611555577f4e487b7100000000000000000000000000000000000000000000000000000000600052603260045260246000fd5b9060005260206000209060040201600301548282815181106115a0577f4e487b7100000000000000000000000000000000000000000000000000000000600052603260045260246000fd5b60200260200101818152505080806115b7906154f5565b915050611360565b5083838383985098509850985050505050509193509193565b60006040518060800160405280868152602001858152602001848152602001838152509050600b60008581526020019081526020016000208190806001815401808255809150506001900390600052602060002090600402016000909190919091506000820151816000015560208201518160010155604082015181600201556060820151816003015550505050505050565b60608060608060606000600f8054905067ffffffffffffffff8111156116ba577f4e487b7100000000000000000000000000000000000000000000000000000000600052604160045260246000fd5b6040519080825280602002602001820160405280156116e85781602001602082028036833780820191505090505b5090506000600f8054905067ffffffffffffffff811115611732577f4e487b7100000000000000000000000000000000000000000000000000000000600052604160045260246000fd5b6040519080825280602002602001820160405280156117605781602001602082028036833780820191505090505b5090506000600f8054905067ffffffffffffffff8111156117aa577f4e487b7100000000000000000000000000000000000000000000000000000000600052604160045260246000fd5b6040519080825280602002602001820160405280156117d85781602001602082028036833780820191505090505b5090506000600f8054905067ffffffffffffffff811115611822577f4e487b7100000000000000000000000000000000000000000000000000000000600052604160045260246000fd5b6040519080825280602002602001820160405280156118505781602001602082028036833780820191505090505b5090506000600f8054905067ffffffffffffffff81111561189a577f4e487b7100000000000000000000000000000000000000000000000000000000600052604160045260246000fd5b6040519080825280602002602001820160405280156118c85781602001602082028036833780820191505090505b5090506000805b600f80549050811015611b1c576000600f8281548110611918577f4e487b7100000000000000000000000000000000000000000000000000000000600052603260045260246000fd5b906000526020600020015490508d600a6000838152602001908152602001600020600101541415611b08578088848151811061197d577f4e487b7100000000000000000000000000000000000000000000000000000000600052603260045260246000fd5b602002602001018181525050600a6000828152602001908152602001600020600101548784815181106119d9577f4e487b7100000000000000000000000000000000000000000000000000000000600052603260045260246000fd5b602002602001018181525050600a600082815260200190815260200160002060020154868481518110611a35577f4e487b7100000000000000000000000000000000000000000000000000000000600052603260045260246000fd5b602002602001018181525050600a600082815260200190815260200160002060030154858481518110611a91577f4e487b7100000000000000000000000000000000000000000000000000000000600052603260045260246000fd5b602002602001018181525050600a600082815260200190815260200160002060040154848481518110611aed577f4e487b7100000000000000000000000000000000000000000000000000000000600052603260045260246000fd5b6020026020010181815250508280611b04906154f5565b9350505b508080611b14906154f5565b9150506118cf565b5085858585859a509a509a509a509a5050505050505091939590929450565b6060806060806060600060028054905090508067ffffffffffffffff811115611b8d577f4e487b7100000000000000000000000000000000000000000000000000000000600052604160045260246000fd5b604051908082528060200260200182016040528015611bbb5781602001602082028036833780820191505090505b5095508067ffffffffffffffff811115611bfe577f4e487b7100000000000000000000000000000000000000000000000000000000600052604160045260246000fd5b604051908082528060200260200182016040528015611c2c5781602001602082028036833780820191505090505b5094508067ffffffffffffffff811115611c6f577f4e487b7100000000000000000000000000000000000000000000000000000000600052604160045260246000fd5b604051908082528060200260200182016040528015611c9d5781602001602082028036833780820191505090505b5093508067ffffffffffffffff811115611ce0577f4e487b7100000000000000000000000000000000000000000000000000000000600052604160045260246000fd5b604051908082528060200260200182016040528015611d0e5781602001602082028036833780820191505090505b5092508067ffffffffffffffff811115611d51577f4e487b7100000000000000000000000000000000000000000000000000000000600052604160045260246000fd5b604051908082528060200260200182016040528015611d7f5781602001602082028036833780820191505090505b50915060005b81811015611fe257600060028281548110611dc9577f4e487b7100000000000000000000000000000000000000000000000000000000600052603260045260246000fd5b9060005260206000200154905060006003600083815260200190815260200160002090508981600101541415611fcd578060010154898481518110611e37577f4e487b7100000000000000000000000000000000000000000000000000000000600052603260045260246000fd5b6020026020010181815250508060000154888481518110611e81577f4e487b7100000000000000000000000000000000000000000000000000000000600052603260045260246000fd5b6020026020010181815250508060030160009054906101000a900473ffffffffffffffffffffffffffffffffffffffff16878481518110611eeb577f4e487b7100000000000000000000000000000000000000000000000000000000600052603260045260246000fd5b602002602001019073ffffffffffffffffffffffffffffffffffffffff16908173ffffffffffffffffffffffffffffffffffffffff16815250508060020154868481518110611f63577f4e487b7100000000000000000000000000000000000000000000000000000000600052603260045260246000fd5b6020026020010181815250508060030160149054906101000a900460ff16858481518110611fba577f4e487b7100000000000000000000000000000000000000000000000000000000600052603260045260246000fd5b6020026020010190151590811515815250505b50508080611fda906154f5565b915050611d85565b505091939590929450565b600a6020528060005260406000206000915090508060000154908060010154908060020154908060030154908060040154905085565b600c6020528060005260406000206000915054906101000a900460ff1681565b600280600381111561207e577f4e487b7100000000000000000000000000000000000000000000000000000000600052602160045260246000fd5b6000803373ffffffffffffffffffffffffffffffffffffffff1673ffffffffffffffffffffffffffffffffffffffff16815260200190815260200160002060009054906101000a900460ff166003811115612102577f4e487b7100000000000000000000000000000000000000000000000000000000600052602160045260246000fd5b14612142576040517f08c379a000000000000000000000000000000000000000000000000000000000815260040161213990615185565b60405180910390fd5b60006003600084815260200190815260200160002090503373ffffffffffffffffffffffffffffffffffffffff168160030160009054906101000a900473ffffffffffffffffffffffffffffffffffffffff1673ffffffffffffffffffffffffffffffffffffffff16146121eb576040517f08c379a00000000000000000000000000000000000000000000000000000000081526004016121e290615185565b60405180910390fd5b60005b60028054905081101561234b578360028281548110612236577f4e487b7100000000000000000000000000000000000000000000000000000000600052603260045260246000fd5b90600052602060002001541415612338576002600160028054905061225b9190615420565b81548110612292577f4e487b7100000000000000000000000000000000000000000000000000000000600052603260045260246000fd5b9060005260206000200154600282815481106122d7577f4e487b7100000000000000000000000000000000000000000000000000000000600052603260045260246000fd5b9060005260206000200181905550600280548061231d577f4e487b7100000000000000000000000000000000000000000000000000000000600052603160045260246000fd5b6001900381819060005260206000200160009055905561234b565b8080612343906154f5565b9150506121ee565b5060036000848152602001908152602001600020600080820160009055600182016000905560028201600090556003820160006101000a81549073ffffffffffffffffffffffffffffffffffffffff02191690556003820160146101000a81549060ff02191690555050505050565b6060806060806000600d8054905067ffffffffffffffff811115612407577f4e487b7100000000000000000000000000000000000000000000000000000000600052604160045260246000fd5b6040519080825280602002602001820160405280156124355781602001602082028036833780820191505090505b5090506000600d8054905067ffffffffffffffff81111561247f577f4e487b7100000000000000000000000000000000000000000000000000000000600052604160045260246000fd5b6040519080825280602002602001820160405280156124ad5781602001602082028036833780820191505090505b5090506000600d8054905067ffffffffffffffff8111156124f7577f4e487b7100000000000000000000000000000000000000000000000000000000600052604160045260246000fd5b6040519080825280602002602001820160405280156125255781602001602082028036833780820191505090505b5090506000600d8054905067ffffffffffffffff81111561256f577f4e487b7100000000000000000000000000000000000000000000000000000000600052604160045260246000fd5b60405190808252806020026020018201604052801561259d5781602001602082028036833780820191505090505b50905060005b600d80549050811015612767576000600d82815481106125ec577f4e487b7100000000000000000000000000000000000000000000000000000000600052603260045260246000fd5b9060005260206000200154905080868381518110612633577f4e487b7100000000000000000000000000000000000000000000000000000000600052603260045260246000fd5b602002602001018181525050600960008281526020019081526020016000206001015485838151811061268f577f4e487b7100000000000000000000000000000000000000000000000000000000600052603260045260246000fd5b60200260200101818152505060096000828152602001908152602001600020600201548483815181106126eb577f4e487b7100000000000000000000000000000000000000000000000000000000600052603260045260246000fd5b6020026020010181815250506009600082815260200190815260200160002060030154838381518110612747577f4e487b7100000000000000000000000000000000000000000000000000000000600052603260045260246000fd5b60200260200101818152505050808061275f906154f5565b9150506125a3565b508383838397509750975097505050505090919293565b60096020528060005260406000206000915090508060000154908060010154908060020154908060030154905084565b600f81815481106127be57600080fd5b906000526020600020016000915090505481565b600180600381111561280d577f4e487b7100000000000000000000000000000000000000000000000000000000600052602160045260246000fd5b6000803373ffffffffffffffffffffffffffffffffffffffff1673ffffffffffffffffffffffffffffffffffffffff16815260200190815260200160002060009054906101000a900460ff166003811115612891577f4e487b7100000000000000000000000000000000000000000000000000000000600052602160045260246000fd5b146128d1576040517f08c379a00000000000000000000000000000000000000000000000000000000081526004016128c890615185565b60405180910390fd5b600073ffffffffffffffffffffffffffffffffffffffff166004600088815260200190815260200160002060000160009054906101000a900473ffffffffffffffffffffffffffffffffffffffff1673ffffffffffffffffffffffffffffffffffffffff1614612976576040517f08c379a000000000000000000000000000000000000000000000000000000000815260040161296d906150e5565b60405180910390fd5b6000600460008881526020019081526020016000209050338160000160006101000a81548173ffffffffffffffffffffffffffffffffffffffff021916908373ffffffffffffffffffffffffffffffffffffffff16021790555087816006018190555086816001018190555085816002018190555084816003018190555083816004018190555082816005018190555060008160070160006101000a81548160ff0219169083151502179055506001879080600181540180825580915050600190039060005260206000200160009091909190915055600560003373ffffffffffffffffffffffffffffffffffffffff1673ffffffffffffffffffffffffffffffffffffffff168152602001908152602001600020879080600181540180825580915050600190039060005260206000200160009091909190915055863373ffffffffffffffffffffffffffffffffffffffff167ffc5b9d1c2c1134048e1792e3ae27d4eee04f460d341711c7088000d2ca21862160405160405180910390a35050505050505050565b60086020528060005260406000206000915090508060000154908060010154908060020154908060030154905084565b60006020528060005260406000206000915054906101000a900460ff1681565b6001806003811115612b8b577f4e487b7100000000000000000000000000000000000000000000000000000000600052602160045260246000fd5b6000803373ffffffffffffffffffffffffffffffffffffffff1673ffffffffffffffffffffffffffffffffffffffff16815260200190815260200160002060009054906101000a900460ff166003811115612c0f577f4e487b7100000000000000000000000000000000000000000000000000000000600052602160045260246000fd5b14612c4f576040517f08c379a0000000000000000000000000000000000000000000000000000000008152600401612c4690615185565b60405180910390fd5b60006004600084815260200190815260200160002090503373ffffffffffffffffffffffffffffffffffffffff168160000160009054906101000a900473ffffffffffffffffffffffffffffffffffffffff1673ffffffffffffffffffffffffffffffffffffffff1614612cf8576040517f08c379a0000000000000000000000000000000000000000000000000000000008152600401612cef90615165565b60405180910390fd5b6000600560003373ffffffffffffffffffffffffffffffffffffffff1673ffffffffffffffffffffffffffffffffffffffff168152602001908152602001600020905060005b8180549050811015612e955784828281548110612d84577f4e487b7100000000000000000000000000000000000000000000000000000000600052603260045260246000fd5b90600052602060002001541415612e82578160018380549050612da79190615420565b81548110612dde577f4e487b7100000000000000000000000000000000000000000000000000000000600052603260045260246000fd5b9060005260206000200154828281548110612e22577f4e487b7100000000000000000000000000000000000000000000000000000000600052603260045260246000fd5b906000526020600020018190555081805480612e67577f4e487b7100000000000000000000000000000000000000000000000000000000600052603160045260246000fd5b60019003818190600052602060002001600090559055612e95565b8080612e8d906154f5565b915050612d3e565b5060005b600180549050811015612ff4578460018281548110612ee1577f4e487b7100000000000000000000000000000000000000000000000000000000600052603260045260246000fd5b90600052602060002001541415612fe1576001808080549050612f049190615420565b81548110612f3b577f4e487b7100000000000000000000000000000000000000000000000000000000600052603260045260246000fd5b906000526020600020015460018281548110612f80577f4e487b7100000000000000000000000000000000000000000000000000000000600052603260045260246000fd5b90600052602060002001819055506001805480612fc6577f4e487b7100000000000000000000000000000000000000000000000000000000600052603160045260246000fd5b60019003818190600052602060002001600090559055612ff4565b8080612fec906154f5565b915050612e99565b5060046000858152602001908152602001600020600080820160006101000a81549073ffffffffffffffffffffffffffffffffffffffff02191690556001820160009055600282016000905560038201600090556004820160009055600582016000905560068201600090556007820160006101000a81549060ff02191690555050833373ffffffffffffffffffffffffffffffffffffffff167f7f66bf1186870a6f23e55c5dd4be8b690f04d78042284235221b68ca1323ad1e60405160405180910390a350505050565b60405180608001604052808581526020018481526020018381526020018281525060096000868152602001908152602001600020600082015181600001556020820151816001015560408201518160020155606082015181600301559050506001600c600086815260200190815260200160002060006101000a81548160ff021916908315150217905550600d84908060018154018082558091505060019003906000526020600020016000909190919091505550505050565b6001818154811061318a57600080fd5b906000526020600020016000915090505481565b60608060608060606000600f8054905067ffffffffffffffff8111156131ed577f4e487b7100000000000000000000000000000000000000000000000000000000600052604160045260246000fd5b60405190808252806020026020018201604052801561321b5781602001602082028036833780820191505090505b5090506000600f8054905067ffffffffffffffff811115613265577f4e487b7100000000000000000000000000000000000000000000000000000000600052604160045260246000fd5b6040519080825280602002602001820160405280156132935781602001602082028036833780820191505090505b5090506000600f8054905067ffffffffffffffff8111156132dd577f4e487b7100000000000000000000000000000000000000000000000000000000600052604160045260246000fd5b60405190808252806020026020018201604052801561330b5781602001602082028036833780820191505090505b5090506000600f8054905067ffffffffffffffff811115613355577f4e487b7100000000000000000000000000000000000000000000000000000000600052604160045260246000fd5b6040519080825280602002602001820160405280156133835781602001602082028036833780820191505090505b5090506000600f8054905067ffffffffffffffff8111156133cd577f4e487b7100000000000000000000000000000000000000000000000000000000600052604160045260246000fd5b6040519080825280602002602001820160405280156133fb5781602001602082028036833780820191505090505b5090506000805b600f8054905081101561364f576000600f828154811061344b577f4e487b7100000000000000000000000000000000000000000000000000000000600052603260045260246000fd5b906000526020600020015490508d600a600083815260200190815260200160002060020154141561363b57808884815181106134b0577f4e487b7100000000000000000000000000000000000000000000000000000000600052603260045260246000fd5b602002602001018181525050600a60008281526020019081526020016000206001015487848151811061350c577f4e487b7100000000000000000000000000000000000000000000000000000000600052603260045260246000fd5b602002602001018181525050600a600082815260200190815260200160002060020154868481518110613568577f4e487b7100000000000000000000000000000000000000000000000000000000600052603260045260246000fd5b602002602001018181525050600a6000828152602001908152602001600020600301548584815181106135c4577f4e487b7100000000000000000000000000000000000000000000000000000000600052603260045260246000fd5b602002602001018181525050600a600082815260200190815260200160002060040154848481518110613620577f4e487b7100000000000000000000000000000000000000000000000000000000600052603260045260246000fd5b6020026020010181815250508280613637906154f5565b9350505b508080613647906154f5565b915050613402565b5085858585859a509a509a509a509a5050505050505091939590929450565b60006040518060600160405280848152602001858152602001838152509050600660008581526020019081526020016000208190806001815401808255809150506001900390600052602060002090600302016000909190919091506000820151816000015560208201518160010155604082015181600201555050837fd57261f4f4d2ea482db3198cd3c7e4c082be5b2768e105d6fbffd72aa1a3eb94848460405161371c9291906151e0565b60405180910390a250505050565b6002818154811061373a57600080fd5b906000526020600020016000915090505481565b6006602052816000526040600020818154811061376a57600080fd5b9060005260206000209060030201600091509150508060000154908060010154908060020154905083565b606080606080606080606080600060018054905090508067ffffffffffffffff8111156137eb577f4e487b7100000000000000000000000000000000000000000000000000000000600052604160045260246000fd5b6040519080825280602002602001820160405280156138195781602001602082028036833780820191505090505b5098508067ffffffffffffffff81111561385c577f4e487b7100000000000000000000000000000000000000000000000000000000600052604160045260246000fd5b60405190808252806020026020018201604052801561388a5781602001602082028036833780820191505090505b5097508067ffffffffffffffff8111156138cd577f4e487b7100000000000000000000000000000000000000000000000000000000600052604160045260246000fd5b6040519080825280602002602001820160405280156138fb5781602001602082028036833780820191505090505b5096508067ffffffffffffffff81111561393e577f4e487b7100000000000000000000000000000000000000000000000000000000600052604160045260246000fd5b60405190808252806020026020018201604052801561396c5781602001602082028036833780820191505090505b5095508067ffffffffffffffff8111156139af577f4e487b7100000000000000000000000000000000000000000000000000000000600052604160045260246000fd5b6040519080825280602002602001820160405280156139dd5781602001602082028036833780820191505090505b5094508067ffffffffffffffff811115613a20577f4e487b7100000000000000000000000000000000000000000000000000000000600052604160045260246000fd5b604051908082528060200260200182016040528015613a4e5781602001602082028036833780820191505090505b5093508067ffffffffffffffff811115613a91577f4e487b7100000000000000000000000000000000000000000000000000000000600052604160045260246000fd5b604051908082528060200260200182016040528015613abf5781602001602082028036833780820191505090505b5092508067ffffffffffffffff811115613b02577f4e487b7100000000000000000000000000000000000000000000000000000000600052604160045260246000fd5b604051908082528060200260200182016040528015613b305781602001602082028036833780820191505090505b50915060005b81811015613e6457600060018281548110613b7a577f4e487b7100000000000000000000000000000000000000000000000000000000600052603260045260246000fd5b90600052602060002001549050600060046000838152602001908152602001600020905080600101548c8481518110613bdc577f4e487b7100000000000000000000000000000000000000000000000000000000600052603260045260246000fd5b6020026020010181815250508060000160009054906101000a900473ffffffffffffffffffffffffffffffffffffffff168b8481518110613c46577f4e487b7100000000000000000000000000000000000000000000000000000000600052603260045260246000fd5b602002602001019073ffffffffffffffffffffffffffffffffffffffff16908173ffffffffffffffffffffffffffffffffffffffff168152505080600601548a8481518110613cbe577f4e487b7100000000000000000000000000000000000000000000000000000000600052603260045260246000fd5b6020026020010181815250508060020154898481518110613d08577f4e487b7100000000000000000000000000000000000000000000000000000000600052603260045260246000fd5b6020026020010181815250508060030154888481518110613d52577f4e487b7100000000000000000000000000000000000000000000000000000000600052603260045260246000fd5b6020026020010181815250508060040154878481518110613d9c577f4e487b7100000000000000000000000000000000000000000000000000000000600052603260045260246000fd5b6020026020010181815250508060050154868481518110613de6577f4e487b7100000000000000000000000000000000000000000000000000000000600052603260045260246000fd5b6020026020010181815250508060070160009054906101000a900460ff16858481518110613e3d577f4e487b7100000000000000000000000000000000000000000000000000000000600052603260045260246000fd5b60200260200101901515908115158152505050508080613e5c906154f5565b915050613b36565b50509091929394959697565b60056020528160005260406000208181548110613e8c57600080fd5b90600052602060002001600091509150505481565b600d8181548110613eb157600080fd5b906000526020600020016000915090505481565b60006006600083815260200190815260200160002080549050905060008190505b6000811115613f825760066000848152602001908152602001600020600182613f0f9190615420565b81548110613f46577f4e487b7100000000000000000000000000000000000000000000000000000000600052603260045260246000fd5b90600052602060002090600302016000808201600090556001820160009055600282016000905550508080613f7a906154cb565b915050613ee6565b50817f1a19a850609e026325c8a7be216dbedb5e0bd6081ae8e26bc09a6c5448b30f7d60405160405180910390a25050565b6060806000600660008581526020019081526020016000208054905090508067ffffffffffffffff811115614012577f4e487b7100000000000000000000000000000000000000000000000000000000600052604160045260246000fd5b6040519080825280602002602001820160405280156140405781602001602082028036833780820191505090505b5092508067ffffffffffffffff811115614083577f4e487b7100000000000000000000000000000000000000000000000000000000600052604160045260246000fd5b6040519080825280602002602001820160405280156140b15781602001602082028036833780820191505090505b50915060005b818110156142165760066000868152602001908152602001600020818154811061410a577f4e487b7100000000000000000000000000000000000000000000000000000000600052603260045260246000fd5b906000526020600020906003020160000154848281518110614155577f4e487b7100000000000000000000000000000000000000000000000000000000600052603260045260246000fd5b6020026020010181815250506006600086815260200190815260200160002081815481106141ac577f4e487b7100000000000000000000000000000000000000000000000000000000600052603260045260246000fd5b9060005260206000209060030201600201548382815181106141f7577f4e487b7100000000000000000000000000000000000000000000000000000000600052603260045260246000fd5b602002602001018181525050808061420e906154f5565b9150506140b7565b5050915091565b6040518060a0016040528086815260200185815260200184815260200183815260200182815250600a600087815260200190815260200160002060008201518160000155602082015181600101556040820151816002015560608201518160030155608082015181600401559050506001600e600087815260200190815260200160002060006101000a81548160ff021916908315150217905550600f8590806001815401808255809150506001900390600052602060002001600090919091909150555050505050565b600b602052816000526040600020818154811061430457600080fd5b9060005260206000209060040201600091509150508060000154908060010154908060020154908060030154905084565b6000806003811115614370577f4e487b7100000000000000000000000000000000000000000000000000000000600052602160045260246000fd5b6000803373ffffffffffffffffffffffffffffffffffffffff1673ffffffffffffffffffffffffffffffffffffffff16815260200190815260200160002060009054906101000a900460ff1660038111156143f4577f4e487b7100000000000000000000000000000000000000000000000000000000600052602160045260246000fd5b14614434576040517f08c379a000000000000000000000000000000000000000000000000000000000815260040161442b90615185565b60405180910390fd5b6000600460008481526020019081526020016000209050600073ffffffffffffffffffffffffffffffffffffffff168160000160009054906101000a900473ffffffffffffffffffffffffffffffffffffffff1673ffffffffffffffffffffffffffffffffffffffff1614156144df576040517f08c379a00000000000000000000000000000000000000000000000000000000081526004016144d690615125565b60405180910390fd5b8060070160009054906101000a900460ff1615614531576040517f08c379a000000000000000000000000000000000000000000000000000000000815260040161452890615145565b60405180910390fd5b823373ffffffffffffffffffffffffffffffffffffffff167f5f6c9cf4e0a7bf42ba42adaa9f31f393b825279a9c668d3e11ecae26a28844fe60405160405180910390a360018160070160006101000a81548160ff021916908315150217905550505050565b6000813590506145a6816155b0565b92915050565b6000813590506145bb816155c7565b92915050565b6000813590506145d0816155de565b92915050565b6000813590506145e5816155ee565b92915050565b6000602082840312156145fd57600080fd5b600061460b84828501614597565b91505092915050565b6000806040838503121561462757600080fd5b600061463585828601614597565b9250506020614646858286016145c1565b9150509250929050565b6000806040838503121561466357600080fd5b600061467185828601614597565b9250506020614682858286016145d6565b9150509250929050565b60006020828403121561469e57600080fd5b60006146ac848285016145d6565b91505092915050565b600080604083850312156146c857600080fd5b60006146d6858286016145d6565b92505060206146e7858286016145d6565b9150509250929050565b60008060006060848603121561470657600080fd5b6000614714868287016145d6565b9350506020614725868287016145d6565b9250506040614736868287016145ac565b9150509250925092565b60008060008060008060c0878903121561475957600080fd5b600061476789828a016145d6565b965050602061477889828a016145d6565b955050604061478989828a016145ac565b945050606061479a89828a016145ac565b93505060806147ab89828a016145ac565b92505060a06147bc89828a016145ac565b9150509295509295509295565b600080600080608085870312156147df57600080fd5b60006147ed878288016145d6565b94505060206147fe878288016145d6565b935050604061480f878288016145ac565b9250506060614820878288016145d6565b91505092959194509250565b60008060006060848603121561484157600080fd5b600061484f868287016145d6565b9350506020614860868287016145d6565b9250506040614871868287016145d6565b9150509250925092565b600080600080600060a0868803121561489357600080fd5b60006148a1888289016145d6565b95505060206148b2888289016145d6565b94505060406148c3888289016145d6565b93505060606148d4888289016145ac565b92505060806148e5888289016145d6565b9150509295509295909350565b60006148fe8383614952565b60208301905092915050565b60006149168383614ae8565b60208301905092915050565b600061492e8383614b06565b60208301905092915050565b60006149468383614d99565b60208301905092915050565b61495b81615454565b82525050565b61496a81615454565b82525050565b600061497b8261536b565b61498581856153cb565b93506149908361532b565b8060005b838110156149c15781516149a888826148f2565b97506149b383615397565b925050600181019050614994565b5085935050505092915050565b60006149d982615376565b6149e381856153dc565b93506149ee8361533b565b8060005b83811015614a1f578151614a06888261490a565b9750614a11836153a4565b9250506001810190506149f2565b5085935050505092915050565b6000614a3782615381565b614a4181856153ed565b9350614a4c8361534b565b8060005b83811015614a7d578151614a648882614922565b9750614a6f836153b1565b925050600181019050614a50565b5085935050505092915050565b6000614a958261538c565b614a9f81856153fe565b9350614aaa8361535b565b8060005b83811015614adb578151614ac2888261493a565b9750614acd836153be565b925050600181019050614aae565b5085935050505092915050565b614af181615466565b82525050565b614b0081615466565b82525050565b614b0f81615472565b82525050565b614b1e81615472565b82525050565b614b2d816154b9565b82525050565b6000614b4060158361540f565b91507f43616d706169676e206e6f7420617070726f76656400000000000000000000006000830152602082019050919050565b6000614b80601d8361540f565b91507f4170706f696e746d656e7420494420616c7265616479206578697374730000006000830152602082019050919050565b6000614bc0601a8361540f565b91507f43616d706169676e20494420616c7265616479206578697374730000000000006000830152602082019050919050565b6000614c0060268361540f565b91507f4170706f696e746d656e7420616c7265616479206d61726b656420617320617460008301527f74656e64656400000000000000000000000000000000000000000000000000006020830152604082019050919050565b6000614c6660128361540f565b91507f43616d706169676e206e6f7420666f756e6400000000000000000000000000006000830152602082019050919050565b6000614ca660198361540f565b91507f43616d706169676e20616c726561647920617070726f766564000000000000006000830152602082019050919050565b6000614ce6601e8361540f565b91507f556e617574686f72697a65642063616d706169676e2064656c6574696f6e00006000830152602082019050919050565b6000614d2660138361540f565b91507f556e617574686f72697a656420616363657373000000000000000000000000006000830152602082019050919050565b6000614d6660158361540f565b91507f4170706f696e746d656e74206e6f7420666f756e6400000000000000000000006000830152602082019050919050565b614da2816154af565b82525050565b614db1816154af565b82525050565b600061010082019050614dcd600083018b614961565b614dda602083018a614da8565b614de76040830189614b15565b614df46060830188614b15565b614e016080830187614b15565b614e0e60a0830186614b15565b614e1b60c0830185614da8565b614e2860e0830184614af7565b9998505050505050505050565b6000610100820190508181036000830152614e50818b614a8a565b90508181036020830152614e64818a614970565b90508181036040830152614e788189614a8a565b90508181036060830152614e8c8188614a2c565b90508181036080830152614ea08187614a2c565b905081810360a0830152614eb48186614a2c565b905081810360c0830152614ec88185614a2c565b905081810360e0830152614edc81846149ce565b90509998505050505050505050565b60006040820190508181036000830152614f058185614a8a565b90508181036020830152614f198184614a2c565b90509392505050565b600060a0820190508181036000830152614f3c8188614a8a565b90508181036020830152614f508187614a8a565b90508181036040830152614f648186614970565b90508181036060830152614f788185614a8a565b90508181036080830152614f8c81846149ce565b90509695505050505050565b60006080820190508181036000830152614fb28187614a8a565b90508181036020830152614fc68186614a8a565b90508181036040830152614fda8185614a2c565b90508181036060830152614fee8184614a8a565b905095945050505050565b600060a08201905081810360008301526150138188614a8a565b905081810360208301526150278187614a8a565b9050818103604083015261503b8186614a8a565b9050818103606083015261504f8185614a2c565b905081810360808301526150638184614a8a565b90509695505050505050565b60006020820190506150846000830184614af7565b92915050565b600060208201905061509f6000830184614b24565b92915050565b600060208201905081810360008301526150be81614b33565b9050919050565b600060208201905081810360008301526150de81614b73565b9050919050565b600060208201905081810360008301526150fe81614bb3565b9050919050565b6000602082019050818103600083015261511e81614bf3565b9050919050565b6000602082019050818103600083015261513e81614c59565b9050919050565b6000602082019050818103600083015261515e81614c99565b9050919050565b6000602082019050818103600083015261517e81614cd9565b9050919050565b6000602082019050818103600083015261519e81614d19565b9050919050565b600060208201905081810360008301526151be81614d59565b9050919050565b60006020820190506151da6000830184614da8565b92915050565b60006040820190506151f56000830185614da8565b6152026020830184614b15565b9392505050565b600060608201905061521e6000830186614da8565b61522b6020830185614da8565b6152386040830184614b15565b949350505050565b60006080820190506152556000830187614da8565b6152626020830186614da8565b61526f6040830185614b15565b61527c6060830184614da8565b95945050505050565b600060a08201905061529a6000830188614da8565b6152a76020830187614da8565b6152b46040830186614da8565b6152c16060830185614961565b6152ce6080830184614af7565b9695505050505050565b600060a0820190506152ed6000830188614da8565b6152fa6020830187614da8565b6153076040830186614da8565b6153146060830185614b15565b6153216080830184614da8565b9695505050505050565b6000819050602082019050919050565b6000819050602082019050919050565b6000819050602082019050919050565b6000819050602082019050919050565b600081519050919050565b600081519050919050565b600081519050919050565b600081519050919050565b6000602082019050919050565b6000602082019050919050565b6000602082019050919050565b6000602082019050919050565b600082825260208201905092915050565b600082825260208201905092915050565b600082825260208201905092915050565b600082825260208201905092915050565b600082825260208201905092915050565b600061542b826154af565b9150615436836154af565b9250828210156154495761544861553e565b5b828203905092915050565b600061545f8261548f565b9050919050565b60008115159050919050565b6000819050919050565b600081905061548a8261559c565b919050565b600073ffffffffffffffffffffffffffffffffffffffff82169050919050565b6000819050919050565b60006154c48261547c565b9050919050565b60006154d6826154af565b915060008214156154ea576154e961553e565b5b600182039050919050565b6000615500826154af565b91507fffffffffffffffffffffffffffffffffffffffffffffffffffffffffffffffff8214156155335761553261553e565b5b600182019050919050565b7f4e487b7100000000000000000000000000000000000000000000000000000000600052601160045260246000fd5b7f4e487b7100000000000000000000000000000000000000000000000000000000600052602160045260246000fd5b600481106155ad576155ac61556d565b5b50565b6155b981615454565b81146155c457600080fd5b50565b6155d081615472565b81146155db57600080fd5b50565b600481106155eb57600080fd5b50565b6155f7816154af565b811461560257600080fd5b5056fea2646970667358221220506eb29adb855e171203a76902db66e3b340e540e9e6f487a1bb6deac675190964736f6c63430008000033",
  "immutableReferences": {},
  "source": "// SPDX-License-Identifier: MIT\r\npragma solidity ^0.8.0;\r\n\r\ncontract BloodHub {\r\n\r\n    enum UserRole { Admin, Organization, Donor, Hospital }\r\n\r\n    struct Campaign {\r\n        address organization;\r\n        uint256 campaignID;\r\n        bytes32 location;\r\n        bytes32 date;\r\n        bytes32 startTime;\r\n        bytes32 endTime;\r\n        uint256 organizationID;\r\n        bool approved;\r\n        mapping(address => bool) donors;\r\n    }\r\n\r\n    struct Appointment {\r\n        uint256 appointmentID;\r\n        uint256 campaignID;\r\n        uint256 slotID;\r\n        address donor;\r\n        bool attended;\r\n    }\r\n\r\n    struct BloodStock {\r\n        uint256 stockID;\r\n        uint256 ownerID;\r\n        bytes32 bloodGroup;\r\n        uint256 units;\r\n    }\r\n\r\n    struct BloodTransferRequestByHospital {\r\n        uint256 requestID;\r\n        uint256 hospitalID;\r\n        bytes32 bloodGroup;\r\n        uint256 units;\r\n    }\r\n\r\n    struct BloodTransferByAdminOrg {\r\n        uint256 transferID;\r\n        uint256 receiverID;\r\n        uint256 senderID;\r\n        bytes32 bloodGroup;\r\n        uint256 units;\r\n    }\r\n\r\n    struct CampaignSlots {\r\n        uint256 slotID;\r\n        uint256 campaignID;\r\n        bytes32 slotData;\r\n    }\r\n\r\n    mapping(address => UserRole) public userRoles;\r\n    uint256[] public campaignIDs;\r\n    uint256[] public appointmentIDs;\r\n    mapping(uint256 => Appointment) public appointments;\r\n    mapping(uint256 => Campaign) public campaigns;\r\n    mapping(address => uint256[]) public organizationCampaigns;\r\n    mapping(uint256 => CampaignSlots[]) public campaignSlotsMap;\r\n\r\n    event SlotCreated(uint256 indexed campaignID, uint256 slotID, bytes32 slotData);\r\n    event SlotsDeleted(uint256 indexed campaignID);\r\n    uint256 public nextRequestID;\r\n\r\n    mapping(uint256 => BloodStock) public bloodStocks;\r\n    mapping(uint256 => BloodTransferRequestByHospital) public transferRequestsByHospital;\r\n    mapping(uint256 => BloodTransferByAdminOrg) public transfersByAdminOrg;\r\n    mapping(uint256 => BloodStock[]) public bloodStocksByOwner;\r\n    mapping(uint256 => bool) public transferRequestKeys;\r\n    uint256[] public transferRequestKeyList;\r\n    mapping(uint256 => bool) public transferKeys;\r\n    uint256[] public transferKeyList;\r\n\r\n    event CampaignCreated(address indexed organization, uint256 indexed campaignID);\r\n    event CampaignApproved(address indexed admin, uint256 indexed campaignID);\r\n    event UserRoleChanged(address indexed user, UserRole indexed newRole);\r\n    event CampaignDeleted(address indexed organization, uint256 indexed campaignID);\r\n    event AppointmentCreated(uint256 indexed appointmentID, uint256 indexed campaignID, address indexed donor, uint256 slotID);\r\n    event AppointmentAttended(uint256 indexed appointmentID);\r\n\r\n    modifier onlyRole(UserRole role) {\r\n        require(userRoles[msg.sender] == role, \"Unauthorized access\");\r\n        _;\r\n    }\r\n\r\n    function createCampaign(\r\n        uint256 organizationID,\r\n        uint256 campaignID,\r\n        bytes32 location,\r\n        bytes32 date,\r\n        bytes32 startTime,\r\n        bytes32 endTime\r\n    ) external onlyRole(UserRole.Organization) {\r\n        require(campaigns[campaignID].organization == address(0), \"Campaign ID already exists\");\r\n\r\n        Campaign storage newCampaign = campaigns[campaignID];\r\n        newCampaign.organization = msg.sender;\r\n        newCampaign.organizationID = organizationID;\r\n        newCampaign.campaignID = campaignID;\r\n        newCampaign.location = location;\r\n        newCampaign.date = date;\r\n        newCampaign.startTime = startTime;\r\n        newCampaign.endTime = endTime;\r\n        newCampaign.approved = false;\r\n\r\n        campaignIDs.push(campaignID);\r\n        organizationCampaigns[msg.sender].push(campaignID);\r\n\r\n        emit CampaignCreated(msg.sender, campaignID);\r\n    }\r\n\r\n    function approveCampaign(uint256 campaignID) external onlyRole(UserRole.Admin) {\r\n        Campaign storage campaign = campaigns[campaignID];\r\n        require(campaign.organization != address(0), \"Campaign not found\");\r\n        require(!campaign.approved, \"Campaign already approved\");\r\n\r\n        emit CampaignApproved(msg.sender, campaignID);\r\n        campaign.approved = true;\r\n    }\r\n\r\n    function getAllCampaignsForAnyone() external view returns (\r\n        uint256[] memory _campaignIDs,\r\n        address[] memory organizations,\r\n        uint256[] memory organizationIDs,\r\n        bytes32[] memory locations,\r\n        bytes32[] memory dates,\r\n        bytes32[] memory startTimes,\r\n        bytes32[] memory endTimes,\r\n        bool[] memory approvedStatus\r\n    ) {\r\n        uint256 totalCampaigns = campaignIDs.length;\r\n\r\n        _campaignIDs = new uint256[](totalCampaigns);\r\n        organizations = new address[](totalCampaigns);\r\n        organizationIDs = new uint256[](totalCampaigns);\r\n        locations = new bytes32[](totalCampaigns);\r\n        dates = new bytes32[](totalCampaigns);\r\n        startTimes = new bytes32[](totalCampaigns);\r\n        endTimes = new bytes32[](totalCampaigns);\r\n        approvedStatus = new bool[](totalCampaigns);\r\n\r\n        for (uint256 i = 0; i < totalCampaigns; i++) {\r\n            uint256 campaignID = campaignIDs[i];\r\n            Campaign storage campaign = campaigns[campaignID];\r\n\r\n            _campaignIDs[i] = campaign.campaignID;\r\n            organizations[i] = campaign.organization;\r\n            organizationIDs[i] = campaign.organizationID;\r\n            locations[i] = campaign.location;\r\n            dates[i] = campaign.date;\r\n            startTimes[i] = campaign.startTime;\r\n            endTimes[i] = campaign.endTime;\r\n            approvedStatus[i] = campaign.approved;\r\n        }\r\n\r\n        return (_campaignIDs, organizations, organizationIDs, locations, dates, startTimes, endTimes, approvedStatus);\r\n    }\r\n\r\n    function deleteCampaign(uint256 campaignID) external onlyRole(UserRole.Organization) {\r\n        Campaign storage campaign = campaigns[campaignID];\r\n        require(campaign.organization == msg.sender, \"Unauthorized campaign deletion\");\r\n\r\n        uint256[] storage organizationCampaignList = organizationCampaigns[msg.sender];\r\n        for (uint256 i = 0; i < organizationCampaignList.length; i++) {\r\n            if (organizationCampaignList[i] == campaignID) {\r\n                organizationCampaignList[i] = organizationCampaignList[organizationCampaignList.length - 1];\r\n                organizationCampaignList.pop();\r\n                break;\r\n            }\r\n        }\r\n\r\n        for (uint256 i = 0; i < campaignIDs.length; i++) {\r\n            if (campaignIDs[i] == campaignID) {\r\n                campaignIDs[i] = campaignIDs[campaignIDs.length - 1];\r\n                campaignIDs.pop();\r\n                break;\r\n            }\r\n        }\r\n\r\n        delete campaigns[campaignID];\r\n\r\n        emit CampaignDeleted(msg.sender, campaignID);\r\n    }\r\n\r\n    function createAppointment(uint256 appointmentID, uint256 campaignID, uint256 slotID) external onlyRole(UserRole.Donor) {\r\n        require(appointments[appointmentID].donor == address(0), \"Appointment ID already exists\");\r\n\r\n        Campaign storage campaign = campaigns[campaignID];\r\n\r\n        require(campaign.organization != address(0), \"Campaign not found\");\r\n        require(campaign.approved, \"Campaign not approved\");\r\n\r\n        Appointment storage newAppointment = appointments[appointmentID];\r\n        newAppointment.appointmentID = appointmentID;\r\n        newAppointment.campaignID = campaignID;\r\n        newAppointment.slotID = slotID;\r\n        newAppointment.donor = msg.sender;\r\n        newAppointment.attended = false;\r\n\r\n        appointmentIDs.push(appointmentID);\r\n\r\n        emit AppointmentCreated(appointmentID, campaignID, msg.sender, slotID);\r\n    }\r\n\r\n    function getAllAppointmentsForCampaign(uint256 campaignID) external view returns (\r\n        uint256[] memory _campaignIDs,\r\n        uint256[] memory _appointmentIDs,\r\n        address[] memory donors,\r\n        uint256[] memory slotIDs,\r\n        bool[] memory attendedStatus\r\n    ) {\r\n        uint256 totalAppointments = appointmentIDs.length;\r\n\r\n        _campaignIDs = new uint256[](totalAppointments);\r\n        _appointmentIDs = new uint256[](totalAppointments);\r\n        donors = new address[](totalAppointments);\r\n        slotIDs = new uint256[](totalAppointments);\r\n        attendedStatus = new bool[](totalAppointments);\r\n\r\n        for (uint256 i = 0; i < totalAppointments; i++) {\r\n            uint256 appointmentID = appointmentIDs[i];\r\n            Appointment storage appointment = appointments[appointmentID];\r\n\r\n            if (appointment.campaignID == campaignID) {\r\n                _campaignIDs[i] = appointment.campaignID;\r\n                _appointmentIDs[i] = appointment.appointmentID;\r\n                donors[i] = appointment.donor;\r\n                slotIDs[i] = appointment.slotID;\r\n                attendedStatus[i] = appointment.attended;\r\n            }\r\n        }\r\n\r\n        return (_campaignIDs, _appointmentIDs, donors, slotIDs, attendedStatus);\r\n    }\r\n\r\n    function deleteAppointment(uint256 appointmentID) external onlyRole(UserRole.Donor) {\r\n        Appointment storage appointment = appointments[appointmentID];\r\n        require(appointment.donor == msg.sender, \"Unauthorized access\");\r\n\r\n        for (uint256 i = 0; i < appointmentIDs.length; i++) {\r\n            if (appointmentIDs[i] == appointmentID) {\r\n                appointmentIDs[i] = appointmentIDs[appointmentIDs.length - 1];\r\n                appointmentIDs.pop();\r\n                break;\r\n            }\r\n        }\r\n\r\n        delete appointments[appointmentID];\r\n    }\r\n\r\n    function markAppointmentAttended(uint256 appointmentID) external onlyRole(UserRole.Organization) {\r\n        Appointment storage appointment = appointments[appointmentID];\r\n\r\n        require(appointment.donor != address(0), \"Appointment not found\");\r\n        require(campaigns[appointment.campaignID].organization == msg.sender, \"Unauthorized access\");\r\n        require(!appointment.attended, \"Appointment already marked as attended\");\r\n\r\n        appointment.attended = true;\r\n\r\n        emit AppointmentAttended(appointmentID);\r\n    }\r\n\r\n\r\n\r\n\r\n    // Function to set the role of a user\r\n    function setUserRole(address user, UserRole newRole) external onlyRole(UserRole.Admin) {\r\n        userRoles[user] = newRole;\r\n        emit UserRoleChanged(user, newRole);\r\n    }\r\n\r\n\r\n\r\n\r\n\r\n\r\n\r\n    /////////////////////////////Blood stock Functions\r\n\r\n        // Function to add blood stock\r\nfunction addBloodStock(\r\n        uint256 _stockID,\r\n        uint256 _ownerID,\r\n        bytes32 _bloodGroup,\r\n        uint256 _units\r\n    ) external {\r\n        BloodStock memory newBloodStock = BloodStock(_stockID, _ownerID, _bloodGroup, _units);\r\n        bloodStocksByOwner[_ownerID].push(newBloodStock);\r\n    }\r\n\r\n    // Function to make blood transfer requests by hospital\r\nfunction makeTransferRequestByHospital(\r\n        uint256 _requestID,\r\n        uint256 _hospitalID,\r\n        bytes32 _bloodGroup,\r\n        uint256 _units\r\n    ) external {\r\n        transferRequestsByHospital[_requestID] = BloodTransferRequestByHospital(\r\n            _requestID,\r\n            _hospitalID,\r\n            _bloodGroup,\r\n            _units\r\n        );\r\n\r\n        // Mark the key as existing in transferRequestKeys\r\n        transferRequestKeys[_requestID] = true;\r\n\r\n        // Update the list of keys\r\n        transferRequestKeyList.push(_requestID);\r\n    }\r\n\r\n    // Function for the admin organization to execute blood transfers\r\n    function executeBloodTransferByAdminOrg(\r\n        uint256 _transferID,\r\n        uint256 _receiverID,\r\n        uint256 _senderID,\r\n        bytes32 _bloodGroup,\r\n        uint256 _units\r\n    ) external {\r\n        transfersByAdminOrg[_transferID] = BloodTransferByAdminOrg(\r\n            _transferID,\r\n            _receiverID,\r\n            _senderID,\r\n            _bloodGroup,\r\n            _units\r\n        );\r\n\r\n        // Mark the key as existing in transferKeys\r\n        transferKeys[_transferID] = true;\r\n\r\n        // Update the list of keys\r\n        transferKeyList.push(_transferID);\r\n    }\r\n\r\n    // Function to get all blood stocks for a specific owner\r\n    function getBloodStocksByOwner(uint256 _ownerID) external view returns (uint256[] memory, uint256[] memory, bytes32[] memory, uint256[] memory) {\r\n        BloodStock[] storage stocks = bloodStocksByOwner[_ownerID];\r\n\r\n        // Arrays to store individual properties\r\n        uint256[] memory stockIDs = new uint256[](stocks.length);\r\n        uint256[] memory ownerIDs = new uint256[](stocks.length);\r\n        bytes32[] memory bloodGroups = new bytes32[](stocks.length);\r\n        uint256[] memory units = new uint256[](stocks.length);\r\n\r\n        // Extract data from the array of structs\r\n        for (uint256 i = 0; i < stocks.length; i++) {\r\n            stockIDs[i] = stocks[i].stockID;\r\n            ownerIDs[i] = stocks[i].ownerID;\r\n            bloodGroups[i] = stocks[i].bloodGroup;\r\n            units[i] = stocks[i].units;\r\n        }\r\n\r\n        return (stockIDs, ownerIDs, bloodGroups, units);\r\n    }\r\n\r\n    //get all hospitals requests\r\n    function getAllTransferRequestsByHospital() external view returns (uint256[] memory, uint256[] memory, bytes32[] memory, uint256[] memory) {\r\n        // Arrays to store individual properties\r\n        uint256[] memory requestIDs = new uint256[](transferRequestKeyList.length);\r\n        uint256[] memory hospitalIDs = new uint256[](transferRequestKeyList.length);\r\n        bytes32[] memory bloodGroups = new bytes32[](transferRequestKeyList.length);\r\n        uint256[] memory units = new uint256[](transferRequestKeyList.length);\r\n\r\n        // Iterate through the keys of the mapping\r\n        for (uint256 i = 0; i < transferRequestKeyList.length; i++) {\r\n            uint256 requestID = transferRequestKeyList[i];\r\n\r\n            requestIDs[i] = requestID;\r\n            hospitalIDs[i] = transferRequestsByHospital[requestID].hospitalID;\r\n            bloodGroups[i] = transferRequestsByHospital[requestID].bloodGroup;\r\n            units[i] = transferRequestsByHospital[requestID].units;\r\n        }\r\n\r\n        return (requestIDs, hospitalIDs, bloodGroups, units);\r\n    }\r\n\r\n\r\n\r\n\r\n    // Function to get all blood transfers for a specific sender\r\n    function getTransfersBySender(uint256 _senderID) external view returns (uint256[] memory, uint256[] memory, uint256[] memory, bytes32[] memory, uint256[] memory) {\r\n        // Arrays to store individual properties\r\n        uint256[] memory transferIDs = new uint256[](transferKeyList.length);\r\n        uint256[] memory receiverIDs = new uint256[](transferKeyList.length);\r\n        uint256[] memory senderIDs = new uint256[](transferKeyList.length);\r\n        bytes32[] memory bloodGroups = new bytes32[](transferKeyList.length);\r\n        uint256[] memory units = new uint256[](transferKeyList.length);\r\n\r\n        // Counter to keep track of the index in the arrays\r\n        uint256 counter = 0;\r\n\r\n        // Iterate through the keys of the mapping\r\n        for (uint256 i = 0; i < transferKeyList.length; i++) {\r\n            uint256 transferID = transferKeyList[i];\r\n\r\n            if (transfersByAdminOrg[transferID].senderID == _senderID) {\r\n                transferIDs[counter] = transferID;\r\n                receiverIDs[counter] = transfersByAdminOrg[transferID].receiverID;\r\n                senderIDs[counter] = transfersByAdminOrg[transferID].senderID;\r\n                bloodGroups[counter] = transfersByAdminOrg[transferID].bloodGroup;\r\n                units[counter] = transfersByAdminOrg[transferID].units;\r\n\r\n                // Increment the counter\r\n                counter++;\r\n            }\r\n        }\r\n\r\n        return (transferIDs, receiverIDs, senderIDs, bloodGroups, units);\r\n    }\r\n\r\n    // Function to get all blood transfers for a specific receiver\r\n    function getTransfersByReceiver(uint256 _receiverID) external view returns (uint256[] memory, uint256[] memory, uint256[] memory, bytes32[] memory, uint256[] memory) {\r\n        // Arrays to store individual properties\r\n        uint256[] memory transferIDs = new uint256[](transferKeyList.length);\r\n        uint256[] memory receiverIDs = new uint256[](transferKeyList.length);\r\n        uint256[] memory senderIDs = new uint256[](transferKeyList.length);\r\n        bytes32[] memory bloodGroups = new bytes32[](transferKeyList.length);\r\n        uint256[] memory units = new uint256[](transferKeyList.length);\r\n\r\n        // Counter to keep track of the index in the arrays\r\n        uint256 counter = 0;\r\n\r\n        // Iterate through the keys of the mapping\r\n        for (uint256 i = 0; i < transferKeyList.length; i++) {\r\n            uint256 transferID = transferKeyList[i];\r\n\r\n            if (transfersByAdminOrg[transferID].receiverID == _receiverID) {\r\n                transferIDs[counter] = transferID;\r\n                receiverIDs[counter] = transfersByAdminOrg[transferID].receiverID;\r\n                senderIDs[counter] = transfersByAdminOrg[transferID].senderID;\r\n                bloodGroups[counter] = transfersByAdminOrg[transferID].bloodGroup;\r\n                units[counter] = transfersByAdminOrg[transferID].units;\r\n\r\n                // Increment the counter\r\n                counter++;\r\n            }\r\n        }\r\n\r\n        return (transferIDs, receiverIDs, senderIDs, bloodGroups, units);\r\n    }\r\n\r\n    // Function to create a new campaign slot\r\nfunction createSlot(uint256 _campaignID, uint256 _slotID, bytes32 _slotData) external {\r\n    CampaignSlots memory newSlot = CampaignSlots({\r\n        slotID: _slotID,\r\n        campaignID: _campaignID,\r\n        slotData: _slotData\r\n    });\r\n\r\n    campaignSlotsMap[_campaignID].push(newSlot);\r\n\r\n    emit SlotCreated(_campaignID, _slotID, _slotData);\r\n}\r\n\r\n    // Function to get all campaign slots for a given campaign ID\r\nfunction getAllCampaignSlotsByCampaignID(uint256 _campaignID) external view returns (uint256[] memory slotIDs, bytes32[] memory slotDataArray) {\r\n    uint256 slotsCount = campaignSlotsMap[_campaignID].length;\r\n    slotIDs = new uint256[](slotsCount);\r\n    slotDataArray = new bytes32[](slotsCount);\r\n\r\n    for (uint256 i = 0; i < slotsCount; i++) {\r\n        slotIDs[i] = campaignSlotsMap[_campaignID][i].slotID;\r\n        slotDataArray[i] = campaignSlotsMap[_campaignID][i].slotData;\r\n    }\r\n\r\n    return (slotIDs, slotDataArray);\r\n}\r\n\r\n        // Function to delete all slots with a specific campaignID\r\n    function deleteSlots(uint256 _campaignID) external {\r\n        uint256 slotsCount = campaignSlotsMap[_campaignID].length;\r\n\r\n        // Delete each slot in reverse order to avoid index issues\r\n        for (uint256 i = slotsCount; i > 0; i--) {\r\n            delete campaignSlotsMap[_campaignID][i - 1];\r\n        }\r\n\r\n        emit SlotsDeleted(_campaignID);\r\n    }\r\n}\r\n",
  "sourcePath": "C:\\Users\\SupunLap\\Documents\\BlockChain_BloodDonation\\smartContract\\contracts\\BloodHub.sol",
  "compiler": {
    "name": "solc",
    "version": "0.8.0+commit.c7dfd78e.Emscripten.clang"
  },
  "schemaVersion": "3.4.16",
  "updatedAt": "2024-01-27T14:24:15.285Z",
  "networkType": "ethereum",
  "devdoc": {
    "kind": "dev",
    "methods": {},
    "version": 1
  },
  "userdoc": {
    "kind": "user",
    "methods": {},
    "version": 1
  }
}